:100000000C945C000C9482000C9482000C9482008E
:100010000C9482000C9482000C9482000C94820058
:100020000C9482000C9482000C9482000C94820048
:100030000C9482000C9482000C9482000C94820038
:100040000C94B3080C9482000C94950A0C948200D2
:100050000C9482000C9482000C9482000C94820018
:100060000C94C6040C948200C403B208000000077C
:100070000002010000030406000000000000000070
:10008000010204081020408001020408102001022F
:1000900004081020040404040404040402020202FC
:1000A00002020303030303030000232629000025A3
:1000B000282B000024272A0011241FBECFEFD4E0F4
:1000C000DEBFCDBF11E0A0E0B1E0E0E6FAE102C0A2
:1000D00005900D92A239B107D9F712E0A2E9B1E07B
:1000E00001C01D92A235B107E1F710E0CCE6D0E0E7
:1000F00004C02297FE010E942C0DC836D107C9F713
:100100000C94E2070C940000FC016083418312828E
:100110001382148215820895FC0160834183128248
:1001200013821482158208950F931F938C019A01F4
:10013000AB01FC01228333834483558360E472E482
:100140008FE090E00E94FB0CF8013783268361E08A
:1001500081810E94D009F801868197810E9412094D
:100160001F910F910895CF92DF92EF92FF920F931C
:100170001F93CF93DF938C01FC01E680F7808DEF16
:100180009FEFE80EF91EF80180810E948709892BF4
:10019000D1F7F80180810E948709892B21F08FEF28
:1001A000C82ED82E25C0C70162E070E00E94C60CA0
:1001B000CB0103970E941209CC24DD24C0E0D0E0DB
:1001C000C7010E941209F80180810E9487090C2E44
:1001D00002C0880F991F0A94E2F7C82AD92A2196EB
:1001E000C830D10569F7F801868197810E9412090C
:1001F000C601DF91CF911F910F91FF90EF90DF909B
:10020000CF900895CF92DF92EF92FF920F931F93BA
:10021000CF93DF93EC01C62E8A819B81AC81BD8197
:100220000097A105B10579F10E811F81035010409F
:1002300060E089810E94D009C8010E94120921E072
:10024000D22E98E0E92EF12C8C2D99272D2D3327D5
:1002500082239323892B11F061E001C060E0898142
:100260000E94D009C8010E941209DD0C0894E1081F
:10027000F108E114F10441F761E089810E94D0099D
:10028000C8010E941209DF91CF911F910F91FF9039
:10029000EF90DF90CF9008950E94020108950F9390
:1002A0001F93CF93DF938C01EB0104C02196C8010B
:1002B0000E944C0168816623C9F7DF91CF911F919D
:1002C0000F9108952F923F924F925F926F927F927B
:1002D0008F929F92AF92BF92CF92DF92EF92FF9256
:1002E0000F931F93CF93DF93CDB7DEB7A2970FB6CF
:1002F000F894DEBF0FBECDBF9AA389A36A017B012C
:10030000411551056105710521F460E30E944C011E
:1003100051C0442455243201822E9924AA24BB249E
:100320001E010894211C311C8101040D151DC701FB
:10033000B601A50194010E94D90CF80160830894CC
:10034000411C511C611C711CC701B601A50194011F
:100350000E94D90C69017A01211531054105510529
:1003600019F772010894E108F108E20CF31CAA24C1
:10037000BB24650113C0F70160816A3010F4605D31
:1003800001C0695C89A19AA10E944C010894A1084E
:10039000B108C108D1080894E108F1088827992715
:1003A000DC0184199509A609B709A816B906CA0679
:1003B000DB0609F7A2960FB6F894DEBF0FBECDBFDD
:1003C000DF91CF911F910F91FF90EF90DF90CF9031
:1003D000BF90AF909F908F907F906F905F904F9065
:1003E0003F902F9008952AE00E9462010895AB018A
:1003F000662777270E94F3010895EF92FF920F93EB
:100400001F93CF93DF93EC017A018B0177FF0BC031
:100410006DE20E944C0110950095F094E094E11C6F
:10042000F11C011D111D2AE0B801A701CE010E9497
:100430006201DF91CF911F910F91FF90EF9008958E
:10044000AB01662757FD6095762F0E94FD01089548
:100450002115310521F4642F0E944C0108952A30A2
:10046000310519F40E94FD0108950E94620108956A
:100470000F931F938C016DE00E944C016AE0C8014C
:100480000E944C011F910F9108950F931F938C01AF
:100490000E944C01C8010E9438021F910F910895DB
:1004A0000F931F938C010E944F01C8010E943802D4
:1004B0001F910F9108950F931F938C010E940201C9
:1004C000C8010E9438021F910F9108950F931F9346
:1004D0008C010E942002C8010E9438021F910F91D6
:1004E00008950F931F938C010E94FD01C8010E9483
:1004F00038021F910F9108950F931F938C010E9452
:10050000F301C8010E9438021F910F9108950F93C3
:100510001F938C010E942802C8010E9438021F917B
:100520000F9108950895089561E070E080E290E0F1
:100530000E94A70B9093A00180939F0110929E01AF
:1005400010929D0161E070E080E290E00E94A70BB4
:1005500090939B0180939A011092990110929801B7
:100560000E94CF0308950F931F938C01862F0E9442
:1005700000048DEA93E00E94A90480E893E00E94C1
:10058000A404C8010E9494021F910F9108950E9433
:10059000B30208951F93862F142F413208F010E202
:1005A00060919F017091A001412F0E94040410925C
:1005B0009E0110939D011F9108950E94CA02089503
:1005C00081E08093970160939C01109299011092B1
:1005D0009801089560919A0170919B0121E04091EA
:1005E000980180919C010E943D0410929901109203
:1005F0009801109297010895CF93DF93CDB7DEB79E
:1006000021970FB6F894DEBF0FBECDBF69838091EE
:1006100097018823A9F0809198018032B0F48091ED
:100620009901E0919A01F0919B01E80FF11D60831F
:10063000809199018F5F809399018093980105C003
:1006400061E0CE0101960E947A0421960FB6F894DB
:10065000DEBF0FBECDBFDF91CF910895DF92EF9245
:10066000FF920F931F93CF93DF937C018B01D42EC6
:1006700080919701882379F0C0E0D0E008C0F801AC
:10068000E80FF11D6081C7010E94FC0221968C2FAA
:10069000CD15A8F304C0642FC8010E947A04DF912D
:1006A000CF911F910F91FF90EF90DF900895FB0184
:1006B00001900020E9F73197E61BF70B4E2F0E94BF
:1006C0002E0308950E94FC02089580919D0190914F
:1006D0009E01891B9927089520919E0180919D017B
:1006E000281710F080E00AC0E0919F01F091A0016E
:1006F000E20FF11D80812F5F20939E0199270895BD
:10070000AC018091930190919401892B29F19091F2
:100710009E0180919D019817F8F020E030E00AC01A
:10072000E0919F01F091A001EA0FFB1FA40FB51FFC
:100730008C918083822F2F5F3F4FA82FBB27A61756
:10074000B70774F310929E0160939D01E0919301AD
:10075000F0919401CB0109950895E0919501F091F4
:100760009601309729F010929901109298010995FD
:100770000895709394016093930108957093960186
:100780006093950108950895089581E080939701FD
:1007900060939C0110929901109298010895109213
:1007A000B101449A459AE9EBF0E080818E7F808325
:1007B00080818D7F808388E48093B80085E4809376
:1007C000BC0061E070E080E290E00E94A70B909393
:1007D000AB018093AA0161E070E080E290E00E94AA
:1007E000A70B9093A7018093A60161E070E080E2DF
:1007F00090E00E94A70B9093A3018093A20108951B
:10080000880F8093BA000895CF93DF93982FEB0160
:10081000642F413218F081E090E02CC08091B1014A
:100820008823E1F781E08093B1011092A9016093E0
:10083000A801990F91609093B00185EE8093BC0060
:100840008091B1018130E1F34091AA015091AB0157
:1008500020E030E00AC0FF27DE01AE0FBF1FE40F2B
:10086000F51F80818C932F5F3F4FE22F261798F35F
:1008700080E090E0DF91CF910895CF93DF93982FA0
:10088000EB01522F413218F081E090E030C08091AE
:10089000B1018823E1F782E08093B1011092A901B0
:1008A0004093A8016091AA017091AB0120E030E073
:1008B0000AC0FF27DB01AE0FBF1FEC0FFD1F8081B9
:1008C0008C932F5F3F4FE22F241798F3892F99279E
:1008D000880F991F8093B00185EE8093BC0055234B
:1008E00021F08091B1018230E1F380E090E0DF916E
:1008F000CF910895CF93DF93EC01613218F081E03E
:1009000090E01FC08091B101843019F082E090E046
:1009100018C06093A4014091A6015091A70120E066
:1009200030E00AC0FF27DA01AE0FBF1FEC0FFD1F3A
:1009300080818C932F5F3F4FE22F261798F380E042
:1009400090E0DF91CF9108959093AD018093AC0139
:1009500008959093AF018093AE010895882311F01C
:1009600085EC01C085E88093BC00089585ED8093F7
:10097000BC008091BC0084FDFCCF1092B1010895B1
:1009800085EC8093BC001092B10108951F920F92E4
:100990000FB60F9211242F933F934F935F936F9352
:1009A0007F938F939F93AF93BF93EF93FF93809128
:1009B000B9009927887F90708036910509F4BDC0F1
:1009C00081369105CCF58832910509F47BC08932D6
:1009D0009105B4F48031910509F46FC0813191051E
:1009E0003CF4009709F412C1089709F011C165C0E1
:1009F0008831910509F466C0809709F009C106C1E4
:100A00008034910509F485C08134910544F4803324
:100A1000910509F4FBC0C89709F0FAC0F1C0803510
:100A2000910509F468C08835910509F477C08834C8
:100A3000910509F0EDC0EAC08839910509F4DEC0DE
:100A400089399105ECF48837910509F476C0893726
:100A500091054CF48836910509F46FC080379105F3
:100A600009F0D6C06AC08838910509F4C7C080393A
:100A7000910509F468C08038910509F0C9C063C0C8
:100A8000803B910509F48DC0813B91054CF4803A7F
:100A9000910509F46CC0883A910509F0B9C081C08C
:100AA000803C910509F4ACC0883C910509F4A8C0CC
:100AB000883B910509F0ACC08CC08091B001809357
:100AC000BB0015C09091A9018091A801981708F06A
:100AD0009DC09091A901E091AA01F091AB01E90FAD
:100AE000F11D80818093BB009F5F9093A90185ECED
:100AF0008093BC008DC08091A901E091AA01F09182
:100B0000AB01E80FF11D9091BB0090838F5F809344
:100B1000A9019091A9018091A8016DC08091A901BE
:100B2000E091AA01F091AB01E80FF11D9091BB009B
:100B300090838F5F8093A90169C083E08093B101A6
:100B40001092A101D4CF8091A101803208F056C04B
:100B50009091A101E091A201F091A301E90FF11D93
:100B60008091BB0080839F5F9093A101C0CF809153
:100B7000A101803248F48091A101E091A201F0919D
:100B8000A301E80FF11D10826091A1017727E09188
:100B9000AC01F091AD018091A2019091A301099562
:100BA0002FC084E08093B1011092A5011092A4019E
:100BB000E091AE01F091AF0109958091A4018823E5
:100BC00041F481E08093A401E091A601F091A70196
:100BD00010829091A501E091A601F091A701E90F83
:100BE000F11D80818093BB009F5F9093A501909140
:100BF000A5018091A401981708F479CF85E878CFF2
:100C000085EC8093BC001092B10102C00E94B60432
:100C1000FF91EF91BF91AF919F918F917F916F91D4
:100C20005F914F913F912F910F900FBE0F901F90AA
:100C3000189561E0809106010E94690961E0809148
:100C400004010E94690961E0809106010E94D009B7
:100C500060E0809104010E94D00961E084E00E947C
:100C6000690961E085E00E94690961E084E00E9411
:100C7000D00960E085E00E94D00908958F929F928C
:100C8000AF92BF92CF92DF92EF92FF920F931F939A
:100C9000CF93DF936B018A01E9019C01629FC00140
:100CA000639F900D729F900D112464E670E00E9486
:100CB000C60C5B01C801B6010E94C60C4B016EE177
:100CC00071E085EC91E00E940208B80185EC91E0AA
:100CD0000E94A608D7FD09C01C161D06DCF504E01D
:100CE00010E095E0E92EF12C05C002E010E083E071
:100CF000E82EF12CC0E0D0E021C060E0802F0E94FF
:100D0000D00961E08E2D0E94D009B501882777FDBA
:100D10008095982F0E94F00861E0802F0E94D009F2
:100D200060E08E2D0E94D009B6016A197B098827E0
:100D300077FD8095982F0E94F0082196C815D90557
:100D4000E4F261E0802F0E94D00960E08E2D0E94C5
:100D5000D00902C080E090E0DF91CF911F910F9108
:100D6000FF90EF90DF90CF90BF90AF909F908F90CB
:100D700008959C0197FF04C022273327281B390BB5
:100D80002233310554F12536310554F497FF03C061
:100D90002FEF3FEF02C021E030E040ED57E016C0FA
:100DA000293C310554F497FF03C02FEF3FEF02C0F9
:100DB00021E030E048EB5BE009C097FF03C02FEF74
:100DC0003FEF02C021E030E048E853E164E670E024
:100DD00082E390E00E943E06089580E090E008954E
:100DE0008091020190910301959587959093BA01A6
:100DF0008093B90161E0809100010E94690982E954
:100E000091E00E9494020895CF93DF9390E0809147
:100E1000B801882309F491E09093B801992311F067
:100E200061E001C060E0809100010E94D009609102
:100E3000B9017091BA0182E991E00E94C50360E3B3
:100E400071E082E991E00E94570382E991E00E94FB
:100E5000EA026AE070E080E090E00E94F0086091B1
:100E6000B9017091BA0142E050E082E991E00E943C
:100E7000DD021092B5011092B40182E991E00E9466
:100E800065038823C1F0C091B401D091B501C2308F
:100E9000D1058CF482E991E00E946C03CA54DE4FC4
:100EA00088838091B4019091B50101969093B5012A
:100EB0008093B401E2CF8091B6019927982F8827BB
:100EC0002091B701820F911D9093B3018093B201DD
:100ED000DF91CF91089540C00E9404079093BC0118
:100EE0008093BB012091BD013091BE01281B390BBD
:100EF0003093C0012093BF0162E371E085EC91E083
:100F00000E9402086091BB017091BC0185EC91E0E8
:100F10000E949E0864E471E085EC91E00E94020862
:100F20006091BF017091C00185EC91E00E949E0824
:100F300066E671E085EC91E00E9402086091BD01D7
:100F40007091BE0185EC91E00E94A6088091BF01DE
:100F50009091C0010E94B90680911C0190911D01E1
:100F6000892B09F0B9CF0895CF93DF9340E855E27C
:100F700060E070E085EC91E00E94EF0781E090E096
:100F800090931D0180931C010E9419060E94F00697
:100F900007C00E9404079093BE018093BD01219673
:100FA000C436D105B4F368EE73E080E090E00E94AF
:100FB000F0080E9404079093BE018093BD01DF9169
:100FC000CF910895CFEFD4E0DEBFCDBF0E941F09BF
:100FD0000E94B4070E946B07FDCF08950895CB01CE
:100FE000BA010E941B0A08950E945C0A992708957D
:100FF0000E946D0A08950E948C0A0895862F0E940F
:10100000D30A0895CB010E94DA0A0895862F0E9420
:10101000D30A08950F931F938C016DE00E94FE0781
:101020006AE0C8010E94FE071F910F9108950F9377
:101030001F938C010E94FE07C8010E940A081F919D
:101040000F9108950F931F938C010E940208C8010D
:101050000E940A081F910F9108950F931F938C010E
:101060000E940608C8010E940A081F910F91089566
:10107000CB01BA013327442755270E94E70A089578
:101080002AE00E94380808950F931F938C010E9454
:101090004008C8010E940A081F910F910895AB01F2
:1010A000662777270E9440080895EF92FF920F93DA
:1010B0001F93CF93DF93EC017A018B0177FF0BC075
:1010C0006DE20E94FE0710950095F094E094E11CFB
:1010D000F11C011D111D2AE0B801A701CE010E94DB
:1010E0003808DF91CF911F910F91FF90EF900895F5
:1010F0000F931F938C010E945508C8010E940A0893
:101100001F910F9108952115310521F4642F0E943C
:10111000FE0708952A30310519F40E9455080895F4
:101120000E94380808950F931F938C010E94830832
:10113000C8010E940A081F910F910895AB0166270C
:1011400057FD6095762F0E94550808950F931F93C1
:101150008C010E949E08C8010E940A081F910F91ED
:101160000895089508951F920F920FB60F921124BB
:101170008F939F93AF93BF938091CA019091CB01BE
:10118000A091CC01B091CD010196A11DB11D80931C
:10119000CA019093CB01A093CC01B093CD01BF9134
:1011A000AF919F918F910F900FBE0F901F90189548
:1011B0006091CA017091CB018091CC019091CD01D9
:1011C00027E0660F771F881F991F2A95D1F72DE713
:1011D00030E040E050E00E94D90CCA01B901089506
:1011E000AF92BF92CF92DF92EF92FF920F931F9335
:1011F0005B016C010E94D8087B018C010E94D80819
:101200006E197F09800B910B6A157B058C059D0576
:10121000A8F31F910F91FF90EF90DF90CF90BF90B8
:10122000AF900895019751F0880F991F880F991F6B
:1012300002972FB7F8940197F1F72FBF089578948C
:101240001092CA011092CB011092CC011092CD01E4
:1012500084B5826084BD84B5816084BD85B58260BB
:1012600085BD85B5816085BDEEE6F0E08081816059
:101270008083E1E8F0E0808182608083808181600A
:101280008083E0E8F0E0808181608083E1EBF0E042
:10129000808184608083E0EBF0E0808181608083E6
:1012A000ECE7F0E080818F778083808180648083A9
:1012B000EAE7F0E0808184608083808182608083BF
:1012C0008081816080838081806880831092C100EA
:1012D0000895282F3327C90180589F4FFC0194910E
:1012E0002C563F4FF9018491882381F0E82FFF2786
:1012F000EE54FF4FE491FF27662329F480819095F7
:101300008923808308958081892B80830895482FC5
:101310005527CA0184599F4FFC012491CA01805866
:101320009F4FFC0194914C565F4FFA013491332347
:10133000A1F1222331F1233021F4809180008F77B5
:1013400005C0243031F4809180008F7D809380002F
:1013500018C0213019F484B58F7704C0223021F4ED
:1013600084B58F7D84BD0DC0263021F48091B000FE
:101370008F7705C0273029F48091B0008F7D80934E
:10138000B000E32FFF27E855FF4FE491FF2780814E
:10139000892319F081E090E0089580E090E00895BD
:1013A000482F5527CA0184599F4FFC012491CA0137
:1013B00080589F4FFC0194914C565F4FFA01349135
:1013C0003323C1F1222331F1233021F480918000B5
:1013D0008F7705C0243031F4809180008F7D809319
:1013E000800018C0213019F484B58F7704C02230F2
:1013F00021F484B58F7D84BD0DC0263021F4809109
:10140000B0008F7705C0273029F48091B0008F7D20
:101410008093B000E32FFF27E355FF4FE491FF27B0
:10142000662329F4808190958923808308958081A3
:10143000892B80830895EF92FF920F931F937B0176
:101440008C0122E030E040E050E00E94FB0C205C88
:101450003D4B404F5F4FCA01B901A80197010E945F
:10146000FB0C2150304040405040BB2757FDBA95FF
:10147000A52F942F832F2F5F3F4F4F4F5F4F8093A8
:10148000C50021502093C400E1ECF0E08081806130
:1014900080838081886080838081806880831F91C1
:1014A0000F91FF90EF900895982F8091C00085FFD5
:1014B000FCCF9093C60008958091C8019091C90116
:1014C0002091C6013091C701821B930B80589F4F1A
:1014D00060E870E00E94C60C08954091C6015091EA
:1014E000C7018091C8019091C9018417950719F42B
:1014F0008FEF9FEF0895FA01E253FE4F2081CA015A
:10150000019660E870E00E94C60C9093C70180933A
:10151000C601822F992708958091C6019091C70135
:101520009093C9018093C80108951F920F920FB63E
:101530000F9211242F933F934F935F936F937F9359
:101540008F939F93AF93BF93EF93FF934091C60008
:10155000E091C801F091C901CF01019660E870E007
:101560000E94C60C9C018091C6019091C70128176A
:10157000390739F0E253FE4F40833093C90120937D
:10158000C801FF91EF91BF91AF919F918F917F9192
:101590006F915F914F913F912F910F900FBE0F90E0
:1015A0001F90189508950E94540A08958AE00E9499
:1015B000D30A0895CF93DF93EC0103C021960E94D4
:1015C000D30A88818823D1F7DF91CF9108952F9294
:1015D0003F924F925F926F927F928F929F92AF92C3
:1015E000BF92CF92DF92EF92FF920F931F93CF9310
:1015F000DF93CDB7DEB7A0970FB6F894DEBF0FBE6E
:10160000CDBF6B017C0119012A01611571058105AE
:10161000910521F480E30E94D30A4BC0662477240D
:1016200043015E010894A11CB11C8501060D171D24
:10163000C701B601A20191010E94D90CF801608393
:101640000894611C711C811C911CC701B601A20188
:1016500091010E94D90C69017A01211531054105DA
:10166000510519F773010894E108F108EA0CFB1C15
:10167000AA24BB24650111C0F70180818A3010F4CF
:10168000805D01C0895C0E94D30A0894A108B1085A
:10169000C108D1080894E108F10888279927DC01DE
:1016A00086199709A809B909A816B906CA06DB065A
:1016B00019F7A0960FB6F894DEBF0FBECDBFDF912D
:1016C000CF911F910F91FF90EF90DF90CF90BF903F
:1016D000AF909F908F907F906F905F904F903F90D2
:1016E0002F900895EF92FF920F931F937B018C012F
:1016F00097FF0BC08DE20E94D30A10950095F094DD
:10170000E094E11CF11C011D111D2AE030E040E0D5
:1017100050E0C801B7010E94E70A1F910F91FF90A6
:10172000EF90089520E130E040E050E00E94E70AA9
:10173000089528E030E040E050E00E94E70A089574
:1017400022E030E040E050E00E94E70A08950F9365
:101750001F93CF93DF93869F8001879F100D969FE5
:10176000100D1124C8010E94C30BEC01009729F051
:10177000A80160E070E00E94BC0CCE01DF91CF9127
:101780001F910F910895CF93DF93AC01029710F44E
:1017900042E050E0A0915002B0915102FD0120E0E2
:1017A00030E0C0E0D0E020C08081918184179507AF
:1017B00069F482819381209719F09B838A8304C006
:1017C0009093510280935002CF0132C048175907BD
:1017D00038F42115310519F08217930708F49C019C
:1017E000EF010280F381E02D3097F1F621153105EC
:1017F00089F1C901841B950B049708F4A901E0E065
:10180000F0E026C08D919C91119782179307E9F41F
:101810004817590779F4ED018A819B81309719F0B7
:101820009383828304C09093510280935002CD0130
:10183000029649C0841B950BFD01E80FF91F4193E7
:10184000519302978D939C933AC0FD01A281B3817D
:101850001097C1F680914E0290914F02892B41F46E
:1018600080918D0190918E0190934F0280934E0252
:1018700020918B0130918C012115310541F42DB758
:101880003EB780918F0190919001281B390BE09118
:101890004E02F0914F022E1B3F0B2417350788F0A4
:1018A000CA0102962817390760F0CF01840F951FEF
:1018B000029690934F0280934E0241935193CF0131
:1018C00002C080E090E0DF91CF910895CF93DF9345
:1018D000009709F44EC0EC0122971B821A82A09156
:1018E0005002B0915102109711F140E050E001C058
:1018F000DC01AC17BD0700F1BB83AA83FE01219177
:101900003191E20FF31FEA17FB0771F48D919C915F
:101910001197280F391F2E5F3F4F39832883FD0110
:10192000828193819B838A834115510559F4D09319
:101930005102C09350021DC0FD0182819381AD010F
:101940000097B1F6FA01D383C28321913191E20F5E
:10195000F31FEC17FD0769F488819981280F391F5F
:101960002E5F3F4FFA01318320838A819B819383CD
:101970008283DF91CF910895DC0140FF03C001C055
:101980006D936D9342505040D8F7089597FB092E00
:1019900007260AD077FD04D049D006D000201AF4DB
:1019A000709561957F4F0895F6F7909581959F4FBB
:1019B0000895A1E21A2EAA1BBB1BFD010DC0AA1F90
:1019C000BB1FEE1FFF1FA217B307E407F50720F0A8
:1019D000A21BB30BE40BF50B661F771F881F991F23
:1019E0001A9469F760957095809590959B01AC016C
:1019F000BD01CF01089597FB092E05260ED057FD96
:101A000004D0D7DF0AD0001C38F4509540953095AB
:101A100021953F4F4F4F5F4F0895F6F79095809572
:101A2000709561957F4F8F4F9F4F0895AA1BBB1BE9
:101A300051E107C0AA1FBB1FA617B70710F0A61BCE
:101A4000B70B881F991F5A95A9F780959095BC01EF
:101A5000CD010895EE0FFF1F0590F491E02D09943C
:101A60000D00420003000200050004000300020014
:101A70000A000900080007000600010001002020FC
:101A80002D2D205475726E696E6720666F7220006E
:101A9000410043757272656E742068656164696E99
:101AA000673A2000202020202020202020202020F5
:101AB00020202020202020636F757273655F64658D
:101AC0006C74613A2000202020202020202020203B
:101AD0002020202020202020206465736972656406
:101AE0005F68656164696E673A20000000520220F9
:021AF0000000F4
:00000001FF
