:100000000C945C000C9482000C9482000C9482008E
:100010000C9482000C9482000C9482000C94820058
:100020000C9482000C9482000C9482000C94820048
:100030000C9482000C9482000C9482000C94820038
:100040000C9440090C9482000C94220B0C948200B6
:100050000C9482000C9482000C9482000C94820018
:100060000C94C6040C948200C4033F0900000007EE
:100070000002010000030406000000000000000070
:10008000010204081020408001020408102001022F
:1000900004081020040404040404040402020202FC
:1000A00002020303030303030000232629000025A3
:1000B000282B000024272A0011241FBECFEFD4E0F4
:1000C000DEBFCDBF11E0A0E0B1E0EAE7FBE102C096
:1000D00005900D92A038B107D9F712E0A0E8B1E081
:1000E00001C01D92A236B107E1F710E0CCE6D0E0E6
:1000F00004C02297FE010E94B90DC836D107C9F786
:100100000C946F080C940000FC0160834183128200
:100110001382148215820895FC0160834183128248
:1001200013821482158208950F931F938C019A01F4
:10013000AB01FC01228333834483558360E472E482
:100140008FE090E00E949C0DF8013783268361E0E8
:1001500081810E945D0AF801868197810E949F0932
:100160001F910F910895CF92DF92EF92FF920F931C
:100170001F93CF93DF938C01FC01E680F7808DEF16
:100180009FEFE80EF91EF80180810E94140A892B66
:10019000D1F7F80180810E94140A892B21F08FEF9A
:1001A000C82ED82E25C0C70162E070E00E94670DFE
:1001B000CB0103970E949F09CC24DD24C0E0D0E04E
:1001C000C7010E949F09F80180810E94140A0C2E29
:1001D00002C0880F991F0A94E2F7C82AD92A2196EB
:1001E000C830D10569F7F801868197810E949F097F
:1001F000C601DF91CF911F910F91FF90EF90DF909B
:10020000CF900895CF92DF92EF92FF920F931F93BA
:10021000CF93DF93EC01C62E8A819B81AC81BD8197
:100220000097A105B10579F10E811F81035010409F
:1002300060E089810E945D0AC8010E949F0921E057
:10024000D22E98E0E92EF12C8C2D99272D2D3327D5
:1002500082239323892B11F061E001C060E0898142
:100260000E945D0AC8010E949F09DD0C0894E10804
:10027000F108E114F10441F761E089810E945D0A0F
:10028000C8010E949F09DF91CF911F910F91FF90AC
:10029000EF90DF90CF9008950E94020108950F9390
:1002A0001F93CF93DF938C01EB0104C02196C8010B
:1002B0000E944C0168816623C9F7DF91CF911F919D
:1002C0000F9108952F923F924F925F926F927F927B
:1002D0008F929F92AF92BF92CF92DF92EF92FF9256
:1002E0000F931F93CF93DF93CDB7DEB7A2970FB6CF
:1002F000F894DEBF0FBECDBF9AA389A36A017B012C
:10030000411551056105710521F460E30E944C011E
:1003100051C0442455243201822E9924AA24BB249E
:100320001E010894211C311C8101040D151DC701FB
:10033000B601A50194010E947A0DF801608308942A
:10034000411C511C611C711CC701B601A50194011F
:100350000E947A0D69017A01211531054105510587
:1003600019F772010894E108F108E20CF31CAA24C1
:10037000BB24650113C0F70160816A3010F4605D31
:1003800001C0695C89A19AA10E944C010894A1084E
:10039000B108C108D1080894E108F1088827992715
:1003A000DC0184199509A609B709A816B906CA0679
:1003B000DB0609F7A2960FB6F894DEBF0FBECDBFDD
:1003C000DF91CF911F910F91FF90EF90DF90CF9031
:1003D000BF90AF909F908F907F906F905F904F9065
:1003E0003F902F9008952AE00E9462010895AB018A
:1003F000662777270E94F3010895EF92FF920F93EB
:100400001F93CF93DF93EC017A018B0177FF0BC031
:100410006DE20E944C0110950095F094E094E11C6F
:10042000F11C011D111D2AE0B801A701CE010E9497
:100430006201DF91CF911F910F91FF90EF9008958E
:10044000AB01662757FD6095762F0E94FD01089548
:100450002115310521F4642F0E944C0108952A30A2
:10046000310519F40E94FD0108950E94620108956A
:100470000F931F938C016DE00E944C016AE0C8014C
:100480000E944C011F910F9108950F931F938C01AF
:100490000E944C01C8010E9438021F910F910895DB
:1004A0000F931F938C010E944F01C8010E943802D4
:1004B0001F910F9108950F931F938C010E940201C9
:1004C000C8010E9438021F910F9108950F931F9346
:1004D0008C010E942002C8010E9438021F910F91D6
:1004E00008950F931F938C010E94FD01C8010E9483
:1004F00038021F910F9108950F931F938C010E9452
:10050000F301C8010E9438021F910F9108950F93C3
:100510001F938C010E942802C8010E9438021F917B
:100520000F9108950895089561E070E080E290E0F1
:100530000E94340C90938E0180938D0110928C0157
:1005400010928B0161E070E080E290E00E94340C38
:1005500090938901809388011092870110928601FF
:100560000E94CF0308950F931F938C01862F0E9442
:1005700000048DEA93E00E94A90480E893E00E94C1
:10058000A404C8010E9494021F910F9108950E9433
:10059000B30208951F93862F142F413208F010E202
:1005A00060918D0170918E01412F0E940404109280
:1005B0008C0110938B011F9108950E94CA02089527
:1005C00081E08093850160938A01109287011092E7
:1005D00086010895609188017091890121E0409120
:1005E000860180918A010E943D0410928701109239
:1005F0008601109285010895CF93DF93CDB7DEB7C2
:1006000021970FB6F894DEBF0FBECDBF69838091EE
:1006100085018823A9F0809186018032B0F4809111
:100620008701E0918801F0918901E80FF11D608355
:10063000809187018F5F809387018093860105C039
:1006400061E0CE0101960E947A0421960FB6F894DB
:10065000DEBF0FBECDBFDF91CF910895DF92EF9245
:10066000FF920F931F93CF93DF937C018B01D42EC6
:1006700080918501882379F0C0E0D0E008C0F801BE
:10068000E80FF11D6081C7010E94FC0221968C2FAA
:10069000CD15A8F304C0642FC8010E947A04DF912D
:1006A000CF911F910F91FF90EF90DF900895FB0184
:1006B00001900020E9F73197E61BF70B4E2F0E94BF
:1006C0002E0308950E94FC02089580918B01909161
:1006D0008C01891B9927089520918C0180918B01B1
:1006E000281710F080E00AC0E0918D01F0918E0192
:1006F000E20FF11D80812F5F20938C0199270895CF
:10070000AC018091810190918201892B29F1909116
:100710008C0180918B019817F8F020E030E00AC03E
:10072000E0918D01F0918E01EA0FFB1FA40FB51F20
:100730008C918083822F2F5F3F4FA82FBB27A61756
:10074000B70774F310928C0160938B01E0918101E3
:10075000F0918201CB0109950895E0918301F09118
:100760008401309729F01092870110928601099533
:1007700008957093820160938101089570938401BC
:100780006093830108950895089581E08093850121
:1007900060938A0110928701109286010895109249
:1007A0009F01449A459AE9EBF0E080818E7F808337
:1007B00080818D7F808388E48093B80085E4809376
:1007C000BC0061E070E080E290E00E94340C909305
:1007D00099018093980161E070E080E290E00E94CE
:1007E000340C909395018093940161E070E080E275
:1007F00090E00E94340C90939101809390010895B1
:10080000880F8093BA000895CF93DF93982FEB0160
:10081000642F413218F081E090E02CC080919F015C
:100820008823E1F781E080939F0110929701609304
:100830009601990F916090939E0185EE8093BC0084
:1008400080919F018130E1F340919801509199018D
:1008500020E030E00AC0FF27DE01AE0FBF1FE40F2B
:10086000F51F80818C932F5F3F4FE22F261798F35F
:1008700080E090E0DF91CF910895CF93DF93982FA0
:10088000EB01522F413218F081E090E030C08091AE
:100890009F018823E1F782E080939F0110929701E6
:1008A00040939601609198017091990120E030E0A9
:1008B0000AC0FF27DB01AE0FBF1FEC0FFD1F8081B9
:1008C0008C932F5F3F4FE22F241798F3892F99279E
:1008D000880F991F80939E0185EE8093BC0055235D
:1008E00021F080919F018230E1F380E090E0DF9180
:1008F000CF910895CF93DF93EC01613218F081E03E
:1009000090E01FC080919F01843019F082E090E058
:1009100018C060939201409194015091950120E09C
:1009200030E00AC0FF27DA01AE0FBF1FEC0FFD1F3A
:1009300080818C932F5F3F4FE22F261798F380E042
:1009400090E0DF91CF91089590939B0180939A015D
:10095000089590939D0180939C010895882311F040
:1009600085EC01C085E88093BC00089585ED8093F7
:10097000BC008091BC0084FDFCCF10929F010895C3
:1009800085EC8093BC0010929F0108951F920F92F6
:100990000FB60F9211242F933F934F935F936F9352
:1009A0007F938F939F93AF93BF93EF93FF93809128
:1009B000B9009927887F90708036910509F4BDC0F1
:1009C00081369105CCF58832910509F47BC08932D6
:1009D0009105B4F48031910509F46FC0813191051E
:1009E0003CF4009709F412C1089709F011C165C0E1
:1009F0008831910509F466C0809709F009C106C1E4
:100A00008034910509F485C08134910544F4803324
:100A1000910509F4FBC0C89709F0FAC0F1C0803510
:100A2000910509F468C08835910509F477C08834C8
:100A3000910509F0EDC0EAC08839910509F4DEC0DE
:100A400089399105ECF48837910509F476C0893726
:100A500091054CF48836910509F46FC080379105F3
:100A600009F0D6C06AC08838910509F4C7C080393A
:100A7000910509F468C08038910509F0C9C063C0C8
:100A8000803B910509F48DC0813B91054CF4803A7F
:100A9000910509F46CC0883A910509F0B9C081C08C
:100AA000803C910509F4ACC0883C910509F4A8C0CC
:100AB000883B910509F0ACC08CC080919E01809369
:100AC000BB0015C09091970180919601981708F08E
:100AD0009DC090919701E0919801F0919901E90FE3
:100AE000F11D80818093BB009F5F9093970185ECFF
:100AF0008093BC008DC080919701E0919801F091A6
:100B00009901E80FF11D9091BB0090838F5F809356
:100B1000970190919701809196016DC08091970106
:100B2000E0919801F0919901E80FF11D9091BB00BF
:100B300090838F5F8093970169C083E080939F01CA
:100B400010928F01D4CF80918F01803208F056C06F
:100B500090918F01E0919001F0919101E90FF11DC9
:100B60008091BB0080839F5F90938F01C0CF809165
:100B70008F01803248F480918F01E0919001F091D3
:100B80009101E80FF11D108260918F017727E091AC
:100B90009A01F0919B0180919001909191010995AA
:100BA0002FC084E080939F011092930110929201D4
:100BB000E0919C01F0919D0109958091920188231B
:100BC00041F481E080939201E0919401F0919501CC
:100BD000108290919301E0919401F0919501E90FB9
:100BE000F11D80818093BB009F5F90939301909152
:100BF000930180919201981708F479CF85E878CF16
:100C000085EC8093BC0010929F0102C00E94B60444
:100C1000FF91EF91BF91AF919F918F917F916F91D4
:100C20005F914F913F912F910F900FBE0F901F90AA
:100C3000189520E030E0E7EBF1E081919191280FE9
:100C4000391F81E0EB3CF807C1F7C9016AE070E0A9
:100C50000E94670DCB0108952AE030E03093AE0189
:100C60002093AD0124E630E03093B0012093AF0132
:100C700097FF03C0909581959F4FC2973CF41092C7
:100C8000B2011092B10180E090E008952091CF016F
:100C90003091D00137FF03C08FEF9FEF02C081E09A
:100CA00090E09093B4018093B301C90137FF03C072
:100CB000909581959F4F853691051CF480ED97E0C6
:100CC00005C0893C91053CF488EB9BE09093B20110
:100CD0008093B101089580EA9FE09093B2018093E0
:100CE000B10108958F929F92AF92BF92CF92DF92FF
:100CF000EF92FF920F931F93CF93DF937B018A01B3
:100D0000E9019C01629FC001639F900D729F900D4D
:100D1000112464E670E00E94670D5B01C801B70111
:100D20000E94670D4B016AE171E085ED91E00E9440
:100D30008F08B80185ED91E00E943309D7FF06C006
:100D400092E0C92ED12C03E010E008C01C161D064D
:100D500064F584E0C82ED12C05E010E0C0E0D0E0BE
:100D600021C060E08C2D0E945D0A61E0802F0E940E
:100D70005D0AB501882777FD8095982F0E947D092F
:100D800061E08C2D0E945D0A60E0802F0E945D0A68
:100D9000B7016A197B09882777FD8095982F0E94F3
:100DA0007D092196C815D905E4F280E090E0DF9135
:100DB000CF911F910F91FF90EF90DF90CF90BF9058
:100DC000AF909F908F90089561E082E00E94F609B5
:100DD00061E083E00E94F60961E082E00E945D0A22
:100DE00060E083E00E945D0A61E084E00E94F60911
:100DF00061E085E00E94F60961E084E00E945D0AFE
:100E000060E085E00E945D0A089561E082E00E9452
:100E10005D0A60E083E00E945D0A61E084E00E9478
:100E20005D0A60E085E00E945D0A089580910201FC
:100E300090910301959587959093A8018093A701C0
:100E400061E0809100010E94F60980E891E00E9433
:100E500094020895CF93DF9390E08091A6018823B8
:100E600009F491E09093A601992311F061E001C08B
:100E700060E0809100010E945D0A6091A70170917D
:100E8000A80180E891E00E94C5036CE271E080E86F
:100E900091E00E94570380E891E00E94EA026AE034
:100EA00070E080E090E00E947D096091A701709160
:100EB000A80142E050E080E891E00E94DD0210923B
:100EC000A3011092A20180E891E00E9465038823AB
:100ED000C1F0C091A201D091A301C230D1058CF420
:100EE00080E891E00E946C03CC55DE4F88838091AE
:100EF000A2019091A30101969093A3018093A20176
:100F0000E2CF8091A4019927982F88272091A501ED
:100F1000820F911D9093A1018093A001DF91CF9149
:100F20000895E7ECF1E08081918193838283329789
:100F300081E0E33BF807B9F70E942A079093B801D4
:100F40008093B70108958BC08091B5019091B6014F
:100F500064E670E00E94530D892B11F40E94910702
:100F60008091B5019091B60160E573EC0E94530D3C
:100F7000892B09F06BC00E9419069093AC018093F5
:100F8000AB012091CD013091CE01281B390B30935C
:100F9000D0012093CF016091B5017091B60185ED2C
:100FA00091E00E942B096EE271E085ED91E00E94D4
:100FB0008F086091AB017091AC0185ED91E00E94CA
:100FC0002B0963E471E085ED91E00E948F08609148
:100FD000CF017091D00185ED91E00E942B0963E56E
:100FE00071E085ED91E00E948F086091CD017091D4
:100FF000CE0185ED91E00E9433098091CF0190915F
:10100000D0010E942C062091B3013091B40140918F
:10101000B1015091B2016091AF017091B001809126
:10102000AD019091AE010E9472068091B101909144
:10103000B2011816190634F466E671E085ED91E008
:101040000E94AF081092B6011092B5018091B501CF
:101050009091B60101969093B6018093B50180916D
:10106000180190911901892B09F06ECF08950F9303
:101070001F93CF93DF9340E855E260E070E085ED89
:1010800091E00E947C0881E090E0909319018093A8
:1010900018010E94E4060E94160768EE73E080E0E3
:1010A00090E00E947D0900E010E0C7EBD1E00E94D3
:1010B0002A0789939993080F191F81E0CB3CD80721
:1010C000B1F7C8016AE070E00E94670D7093CE012D
:1010D0006093CD01DF91CF911F910F910895CFEFD4
:1010E000D4E0DEBFCDBF0E94AC090E9437080E9449
:1010F000A307FDCF08950895CB01BA010E94A80A65
:1011000008950E94E90A992708950E94FA0A08950D
:101110000E94190B0895862F0E94600B0895CB0141
:101120000E94670B0895862F0E94600B08950F930D
:101130001F938C016DE00E948B086AE0C8010E9439
:101140008B081F910F9108950F931F938C010E949C
:101150008B08C8010E9497081F910F9108950F9363
:101160001F938C010E948F08C8010E9497081F914D
:101170000F9108950F931F938C010E949308C8014B
:101180000E9497081F910F910895CB01BA01332750
:10119000442755270E94740B08952AE00E94C50831
:1011A00008950F931F938C010E94CD08C8010E94DF
:1011B00097081F910F910895AB01662777270E942A
:1011C000CD080895EF92FF920F931F93CF93DF9373
:1011D000EC017A018B0177FF0BC06DE20E948B0856
:1011E00010950095F094E094E11CF11C011D111D77
:1011F0002AE0B801A701CE010E94C508DF91CF9176
:101200001F910F91FF90EF9008950F931F938C0102
:101210000E94E208C8010E9497081F910F9108954B
:101220002115310521F4642F0E948B0808952A307E
:10123000310519F40E94E20808950E94C508089536
:101240000F931F938C010E941009C8010E949708F8
:101250001F910F910895AB01662757FD6095762F7A
:101260000E94E20808950F931F938C010E942B099E
:10127000C8010E9497081F910F910895089508953D
:101280001F920F920FB60F9211248F939F93AF93DB
:10129000BF938091DA019091DB01A091DC01B091C4
:1012A000DD010196A11DB11D8093DA019093DB0150
:1012B000A093DC01B093DD01BF91AF919F918F911D
:1012C0000F900FBE0F901F9018956091DA017091EA
:1012D000DB018091DC019091DD0127E0660F771F33
:1012E000881F991F2A95D1F72DE730E040E050E0A4
:1012F0000E947A0DCA01B9010895AF92BF92CF92B0
:10130000DF92EF92FF920F931F935B016C010E949B
:1013100065097B018C010E9465096E197F09800BAC
:10132000910B6A157B058C059D05A8F31F910F9104
:10133000FF90EF90DF90CF90BF90AF90089501970E
:1013400051F0880F991F880F991F02972FB7F894B3
:101350000197F1F72FBF089578941092DA01109257
:10136000DB011092DC011092DD0184B5826084BD46
:1013700084B5816084BD85B5826085BD85B5816099
:1013800085BDEEE6F0E0808181608083E1E8F0E0F9
:10139000808182608083808181608083E0E8F0E0EA
:1013A000808181608083E1EBF0E0808184608083D4
:1013B000E0EBF0E0808181608083ECE7F0E0808109
:1013C0008F778083808180648083EAE7F0E080818A
:1013D000846080838081826080838081816080835B
:1013E0008081806880831092C1000895282F332760
:1013F000C90180589F4FFC0194912C563F4FF90131
:101400008491882381F0E82FFF27EE54FF4FE49169
:10141000FF27662329F4808190958923808308958E
:101420008081892B80830895482F5527CA018459CC
:101430009F4FFC012491CA0180589F4FFC01949159
:101440004C565F4FFA0134913323A1F1222331F13D
:10145000233021F4809180008F7705C0243031F44F
:10146000809180008F7D8093800018C0213019F416
:1014700084B58F7704C0223021F484B58F7D84BD7C
:101480000DC0263021F48091B0008F7705C0273041
:1014900029F48091B0008F7D8093B000E32FFF2767
:1014A000E855FF4FE491FF278081892319F081E0FF
:1014B00090E0089580E090E00895482F5527CA01F4
:1014C00084599F4FFC012491CA0180589F4FFC0111
:1014D00094914C565F4FFA0134913323C1F122238A
:1014E00031F1233021F4809180008F7705C02430C2
:1014F00031F4809180008F7D8093800018C021306E
:1015000019F484B58F7704C0223021F484B58F7D1F
:1015100084BD0DC0263021F48091B0008F7705C0C6
:10152000273029F48091B0008F7D8093B000E32FA5
:10153000FF27E355FF4FE491FF27662329F48081BD
:1015400090958923808308958081892B80830895D5
:10155000EF92FF920F931F937B018C0122E030E00A
:1015600040E050E00E949C0D205C3D4B404F5F4F9F
:10157000CA01B901A80197010E949C0D2150304079
:1015800040405040BB2757FDBA95A52F942F832F7D
:101590002F5F3F4F4F4F5F4F8093C50021502093E7
:1015A000C400E1ECF0E0808180618083808188600C
:1015B00080838081806880831F910F91FF90EF90DE
:1015C0000895982F8091C00085FFFCCF9093C600AE
:1015D00008958091D8019091D9012091D601309140
:1015E000D701821B930B80589F4F60E870E00E94E8
:1015F000670D08954091D6015091D7018091D8018F
:101600009091D9018417950719F48FEF9FEF0895F2
:10161000FA01E252FE4F2081CA01019660E870E0B3
:101620000E94670D9093D7018093D601822F99274E
:1016300008958091D6019091D7019093D90180931C
:10164000D80108951F920F920FB60F9211242F9375
:101650003F934F935F936F937F938F939F93AF933A
:10166000BF93EF93FF934091C600E091D801F091B2
:10167000D901CF01019660E870E00E94670D9C01DE
:101680008091D6019091D7012817390739F0E2529D
:10169000FE4F40833093D9012093D801FF91EF9101
:1016A000BF91AF919F918F917F916F915F914F917A
:1016B0003F912F910F900FBE0F901F901895089596
:1016C0000E94E10A08958AE00E94600B0895CF937A
:1016D000DF93EC0103C021960E94600B8881882370
:1016E000D1F7DF91CF9108952F923F924F925F9261
:1016F0006F927F928F929F92AF92BF92CF92DF9222
:10170000EF92FF920F931F93CF93DF93CDB7DEB786
:10171000A0970FB6F894DEBF0FBECDBF6B017C0162
:1017200019012A01611571058105910521F480E3F4
:101730000E94600B4BC06624772443015E0108942D
:10174000A11CB11C8501060D171DC701B601A20120
:1017500091010E947A0DF80160830894611C711C4C
:10176000811C911CC701B601A20191010E947A0D52
:1017700069017A01211531054105510519F77301F8
:101780000894E108F108EA0CFB1CAA24BB246501BB
:1017900011C0F70180818A3010F4805D01C0895C3E
:1017A0000E94600B0894A108B108C108D1080894F0
:1017B000E108F10888279927DC0186199709A8090B
:1017C000B909A816B906CA06DB0619F7A0960FB61E
:1017D000F894DEBF0FBECDBFDF91CF911F910F9167
:1017E000FF90EF90DF90CF90BF90AF909F908F9041
:1017F0007F906F905F904F903F902F900895EF9261
:10180000FF920F931F937B018C0197FF0BC08DE21A
:101810000E94600B10950095F094E094E11CF11C7F
:10182000011D111D2AE030E040E050E0C801B70181
:101830000E94740B1F910F91FF90EF90089520E18B
:1018400030E040E050E00E94740B089528E030E062
:1018500040E050E00E94740B089522E030E040E048
:1018600050E00E94740B08950F931F93CF93DF9362
:10187000869F8001879F100D969F100D1124C8012F
:101880000E94500CEC01009729F0A80160E070E084
:101890000E94490DCE01DF91CF911F910F910895C4
:1018A000CF93DF93AC01029710F442E050E0A09197
:1018B0006002B0916102FD0120E030E0C0E0D0E0C4
:1018C00020C0808191818417950769F4828193817A
:1018D000209719F09B838A8304C0909361028093C0
:1018E0006002CF0132C04817590738F4211531057D
:1018F00019F08217930708F49C01EF010280F3812D
:10190000E02D3097F1F62115310589F1C901841BCD
:10191000950B049708F4A901E0E0F0E026C08D9152
:101920009C91119782179307E9F44817590779F4A6
:10193000ED018A819B81309719F09383828304C0E3
:101940009093610280936002CD01029649C0841B8E
:10195000950BFD01E80FF91F4193519302978D9369
:101960009C933AC0FD01A281B3811097C1F680918A
:101970005E0290915F02892B41F480917B019091EE
:101980007C0190935F0280935E02209179013091F7
:101990007A012115310541F42DB73EB780917D01C3
:1019A00090917E01281B390BE0915E02F0915F025D
:1019B0002E1B3F0B2417350788F0CA010296281703
:1019C000390760F0CF01840F951F029690935F0254
:1019D00080935E0241935193CF0102C080E090E07A
:1019E000DF91CF910895CF93DF93009709F44EC014
:1019F000EC0122971B821A82A0916002B0916102D1
:101A0000109711F140E050E001C0DC01AC17BD07B8
:101A100000F1BB83AA83FE0121913191E20FF31FF4
:101A2000EA17FB0771F48D919C911197280F391FCC
:101A30002E5F3F4F39832883FD01828193819B83F1
:101A40008A834115510559F4D0936102C093600215
:101A50001DC0FD0182819381AD010097B1F6FA01AD
:101A6000D383C28321913191E20FF31FEC17FD075D
:101A700069F488819981280F391F2E5F3F4FFA0141
:101A8000318320838A819B8193838283DF91CF91ED
:101A90000895DC0140FF03C001C06D936D93425077
:101AA0005040D8F70895AA1BBB1B51E107C0AA1FDD
:101AB000BB1FA617B70710F0A61BB70B881F991FEF
:101AC0005A95A9F780959095BC01CD01089597FB93
:101AD000092E07260AD077FD04D0E5DF06D00020C6
:101AE0001AF4709561957F4F0895F6F7909581955A
:101AF0009F4F0895A1E21A2EAA1BBB1BFD010DC02A
:101B0000AA1FBB1FEE1FFF1FA217B307E407F507AD
:101B100020F0A21BB30BE40BF50B661F771F881F89
:101B2000991F1A9469F760957095809590959B011F
:101B3000AC01BD01CF01089597FB092E05260ED0FB
:101B400057FD04D0D7DF0AD0001C38F450954095DB
:101B5000309521953F4F4F4F5F4F0895F6F7909581
:101B60008095709561957F4F8F4F9F4F0895EE0F31
:0A1B7000FF1F0590F491E02D099489
:101B7A000D00420005000400030002000A000900EB
:101B8A000800070006000100010020202D2D205426
:101B9A0075726E696E6720666F72200041003A2086
:101BAA002043757272656E742068656164696E6738
:101BBA003A200009636F757273655F64656C7461BE
:101BCA003A200009646573697265645F68656164D7
:101BDA00696E673A200020636F7272656374696E7A
:101BEA006720636F7572736500000062022000004F
:00000001FF
